:020000040800F2
:1000000000500020F1220008311B0008371B0008B7
:100010003D1B0008431B0008491B000800000000AE
:100020000000000000000000000000004F1B00085E
:100030005B1B000800000000671B0008731B000822
:100040003923000839230008392300083923000820
:100050003923000839230008392300083923000810
:100060003923000839230008392300083923000800
:1000700039230008392300083923000839230008F0
:1000800039230008392300083923000839230008E0
:100090003923000839230008392300087F1B000892
:1000A00039230008392300083923000839230008C0
:1000B000951B000839230008E51B000839230008B8
:1000C00039230008392300083923000839230008A0
:1000D0003923000839230008392300083923000890
:1000E000F91B00083923000839230008000000002C
:1000F0000000000000000000000000000000000000
:0C01000000000000000000005FF808F1A3
:1001100010B5054C237833B9044B13B10448AFF341
:1001200000800123237010BD8C000020000000001F
:10013000EC66000808B5034B1BB103490348AFF355
:10014000008008BD0000000090000020EC66000860
:1001500081F0004102E000BF83F0004330B54FEA78
:1001600041044FEA430594EA050F08BF90EA020FE5
:100170001FBF54EA000C55EA020C7FEA645C7FEA78
:10018000655C00F0E2804FEA5454D4EB5555B8BF9B
:100190006D420CDD2C4480EA020281EA030382EA0C
:1001A000000083EA010180EA020281EA0303362D9E
:1001B00088BF30BD11F0004F4FEA01314FF4801C71
:1001C0004CEA113102D0404261EB410113F0004F83
:1001D0004FEA03334CEA133302D0524263EB43033A
:1001E00094EA050F00F0A780A4F10104D5F1200ED8
:1001F0000DDB02FA0EFC22FA05F2801841F1000133
:1002000003FA0EF2801843FA05F359410EE0A5F106
:1002100020050EF1200E012A03FA0EFC28BF4CF037
:10022000020C43FA05F3C01851EBE37101F00045ED
:1002300007D54FF0000EDCF1000C7EEB00006EEBFA
:100240000101B1F5801F1BD3B1F5001F0CD3490884
:100250005FEA30004FEA3C0C04F101044FEA4452DB
:1002600012F5800F80F09A80BCF1004F08BF5FEA62
:10027000500C50F1000041EB045141EA050130BD42
:100280005FEA4C0C404141EB0101013C28BFB1F554
:10029000801FE9D291F0000F04BF01460020B1FA9F
:1002A00081F308BF2033A3F10B03B3F120020CDA72
:1002B0000C3208DD02F1140CC2F10C0201FA0CF050
:1002C00021FA02F10CE002F11402D8BFC2F1200CB5
:1002D00001FA02F120FA0CFCDCBF41EA0C0190406B
:1002E000E41AA2BF01EB0451294330BD6FEA0404B4
:1002F0001F3C1CDA0C340EDC04F11404C4F120029F
:1003000020FA04F001FA02F340EA030021FA04F3B0
:1003100045EA030130BDC4F10C04C4F1200220FA07
:1003200002F001FA04F340EA0300294630BD21FA45
:1003300004F0294630BD94F0000F83F4801306BF0B
:1003400081F480110134013D4EE77FEA645C18BFFF
:100350007FEA655C29D094EA050F08BF90EA020F96
:1003600005D054EA000C04BF1946104630BD91EA8E
:10037000030F1EBF0021002030BD5FEA545C05D191
:100380004000494128BF41F0004130BD14F58004D0
:100390003CBF01F5801130BD01F0004545F0FE4144
:1003A00041F470014FF0000030BD7FEA645C1ABF79
:1003B000194610467FEA655C1CBF0B46024650EAB0
:1003C000013406BF52EA033591EA030F41F40021DC
:1003D00030BD00BF90F0000F04BF0021704730B562
:1003E0004FF4806404F132044FF000054FF0000137
:1003F00050E700BF90F0000F04BF0021704730B5F8
:100400004FF4806404F1320410F0004548BF4042CC
:100410004FF000013EE700BF42004FEAE2014FEA21
:1004200031014FEA02701FBF12F07F4393F07F4FFC
:1004300081F06051704732F07F4208BF704793F0FF
:100440007F4F04BF41F40021704730B54FF4607412
:1004500001F0004521F000411CE700BF50EA010215
:1004600008BF704730B54FF000050AE050EA0102BE
:1004700008BF704730B511F0004502D5404261EB2E
:1004800041014FF4806404F132045FEA915C3FF46F
:10049000D8AE4FF003025FEADC0C18BF03325FEA0C
:1004A000DC0C18BF033202EBDC02C2F1200300FABD
:1004B00003FC20FA02F001FA03FE40EA0E0021FAE2
:1004C00002F11444BDE600BF70B54FF0FF0C4CF4D0
:1004D000E06C1CEA11541DBF1CEA135594EA0C0F82
:1004E00095EA0C0F00F0DEF82C4481EA030621EABD
:1004F0004C5123EA4C5350EA013518BF52EA0335F8
:1005000041F4801143F4801338D0A0FB02CE4FF0A9
:100510000005E1FB02E506F00042E0FB03E54FF0D9
:100520000006E1FB03569CF0000F18BF4EF0010ED1
:10053000A4F1FF04B6F5007F64F5407404D25FEACD
:100540004E0E6D4146EB060642EAC62141EA555180
:100550004FEAC52040EA5E504FEACE2EB4F1FD0CC2
:1005600088BFBCF5E06F1ED8BEF1004F08BF5FEA40
:10057000500E50F1000041EB045170BD06F00046F2
:1005800046EA010140EA020081EA0301B4EB5C049F
:10059000C2BFD4EB0C0541EA045170BD41F4801197
:1005A0004FF0000E013C00F3AB8014F1360FDEBFBC
:1005B000002001F0004170BDC4F10004203C35DA98
:1005C0000C341BDC04F11404C4F1200500FA05F31B
:1005D00020FA04F001FA05F240EA020001F00042BC
:1005E00021F0004110EBD37021FA04F642EB060132
:1005F0005EEA430E08BF20EAD37070BDC4F10C045C
:10060000C4F1200500FA04F320FA05F001FA04F21F
:1006100040EA020001F0004110EBD37041F100010B
:100620005EEA430E08BF20EAD37070BDC4F1200516
:1006300000FA05F24EEA020E20FA04F301FA05F27E
:1006400043EA020321FA04F001F0004121FA04F226
:1006500020EA020000EBD3705EEA430E08BF20EAF6
:10066000D37070BD94F0000F0FD101F00046400030
:1006700041EB010111F4801F08BF013CF7D041EAB2
:10068000060195F0000F18BF704703F000465200B6
:1006900043EB030313F4801F08BF013DF7D043EA87
:1006A0000603704794EA0C0F0CEA135518BF95EA3D
:1006B0000C0F0CD050EA410618BF52EA4306D1D1C4
:1006C00081EA030101F000414FF0000070BD50EAE3
:1006D000410606BF1046194652EA430619D094EA6D
:1006E0000C0F02D150EA013613D195EA0C0F05D157
:1006F00052EA03361CBF104619460AD181EA0301AB
:1007000001F0004141F0FE4141F470014FF0000062
:1007100070BD41F0FE4141F4780170BD70B54FF0FD
:10072000FF0C4CF4E06C1CEA11541DBF1CEA13557D
:1007300094EA0C0F95EA0C0F00F0A7F8A4EB05045F
:1007400081EA030E52EA03354FEA013100F0888056
:100750004FEA03334FF0805545EA131343EA12631F
:100760004FEA022245EA111545EA10654FEA0026D4
:100770000EF000419D4208BF964244F1FD0404F58D
:10078000407402D25B084FEA3202B61A65EB0305E9
:100790005B084FEA32024FF480104FF4002CB6EBA6
:1007A000020E75EB030E22BFB61A754640EA0C0026
:1007B0005B084FEA3202B6EB020E75EB030E22BF66
:1007C000B61A754640EA5C005B084FEA3202B6EBA7
:1007D000020E75EB030E22BFB61A754640EA9C0066
:1007E0005B084FEA3202B6EB020E75EB030E22BF36
:1007F000B61A754640EADC0055EA060E18D04FEAF4
:10080000051545EA16754FEA06164FEAC30343EA93
:1008100052734FEAC2025FEA1C1CC0D111F4801F60
:100820000BD141EA00014FF000004FF0004CB6E759
:1008300011F4801F04BF01430020B4F1FD0C88BFF8
:10084000BCF5E06F3FF6AFAEB5EB030C04BFB6EB03
:10085000020C5FEA500C50F1000041EB045170BDF6
:100860000EF0004E4EEA113114EB5C04C2BFD4EB23
:100870000C0541EA045170BD41F480114FF0000EA7
:10088000013C90E645EA060E8DE60CEA135594EA23
:100890000C0F08BF95EA0C0F3FF43BAF94EA0C0F26
:1008A0000AD150EA01347FF434AF95EA0C0F7FF49B
:1008B00025AF104619462CE795EA0C0F06D152EAEF
:1008C00003353FF4FDAE1046194622E750EA4106D3
:1008D00018BF52EA43067FF4C5AE50EA41047FF4E4
:1008E0000DAF52EA43057FF4EBAE12E74FEA410247
:1008F00012F5001215D211D56FF47873B3EB625272
:1009000012D94FEAC12343F0004343EA505311F098
:10091000004F23FA02F018BF404270474FF000002A
:10092000704750EA013005D111F0004008BF6FF068
:10093000004070474FF00000704700BF4A0011D2DE
:1009400012F5001211D20DD56FF47873B3EB625229
:100950000ED44FEAC12343F0004343EA505323FA35
:1009600002F070474FF00000704750EA013002D1AA
:100970004FF0FF3070474FF00000704780B500AF78
:1009800064230222A021054802F0FAFF0346002B4F
:1009900001D1012300E00023184680BD3001002072
:1009A00080B58AB004AFB9607A603B600346FB81D2
:1009B000294B1B78012B01D1002349E0264B012252
:1009C0001A7001F013FD3861FB8903F01F039BB21D
:1009D000C3F12003FB82FB8A7A689A4201D27B68CA
:1009E000FB82FA8964230293FB8A0193BB6800931C
:1009F0001023A021194802F055FC0346002B23D1F7
:100A00000A2001F0FDFCFB8A7A68D31A7B60FB8A1E
:100A1000BA681344BB60FA89FB8A1344FB817B6884
:100A2000002B04D10C4B00221A70012310E001F0BE
:100A3000DDFC02463B69D31A3A689A42C4D8064B99
:100A400000221A70002303E0034B00221A700023D7
:100A500018461837BD4680BDA80000203001002090
:100A600080B588B004AFB9607A603B600346FB8113
:100A7000114B1B78012B01D1002319E07B689BB23D
:100A8000F9893A6802920193BB68009310230A46E1
:100A9000A0210A4802F000FD0346002B04D1064BBA
:100AA00000221A70012303E0034B00221A70002376
:100AB00018461037BD4680BDA80000203001002038
:100AC000B0B58CB000AF7860FFF758FF0346002B3D
:100AD0002AD04FF4FA73052279680020FFF7C0FF8F
:100AE0000023FB621BE0FB6A7A6813441B78FF2B30
:100AF00012D0104B07F10C041D460FCD0FC495E822
:100B00000F0084E80F0007F10C016423202200206D
:100B1000FFF746FF012309E0FB6A0133FB62FB6A32
:100B2000042BE0DD002301E04FF0FF33184630379F
:100B3000BD46B0BD0467000880B586B002AF03466D
:100B4000FB71FB7923F00F03FB73FB791B01BB7374
:100B5000FB7B43F00C03DBB23B72FB7B43F00803EF
:100B6000DBB27B72BB7B43F00C03DBB2BB72BB7BA3
:100B700043F00803DBB2FB7207F108026423009321
:100B800004237E21034802F08FFA00BF1037BD46D0
:100B900080BD00BFDC00002080B586B002AF0346F8
:100BA000FB71FB7923F00F03FB73FB791B01BB7314
:100BB000FB7B43F00D03DBB23B72FB7B43F009038D
:100BC000DBB27B72BB7B43F00D03DBB2BB72BB7B42
:100BD00043F00903DBB2FB7207F1080264230093C0
:100BE00004237E21034802F05FFA00BF1037BD46A0
:100BF00080BD00BFDC00002080B500AF3320FFF7D0
:100C00009BFF3220FFF798FF322001F0F9FB2820EC
:100C1000FFF792FF322001F0F3FB0120FFF78CFF7A
:100C2000322001F0EDFB0620FFF786FF322001F0B5
:100C3000E7FB0C20FFF780FF322001F0E1FB0220F0
:100C4000FFF77AFF322001F0DBFB8020FFF774FF13
:100C500000BF80BD80B582B000AF786006E07B68E1
:100C60005A1C7A601B781846FFF796FF7B681B7842
:100C7000002BF4D100BF00BF0837BD4680BD80B552
:100C800000AF0120FFF758FF00BF80BD80B584B0E2
:100C900000AF786039607B68012B08D17B68DAB2DD
:100CA0003B68DBB21344DBB27F33FB7308E03B6885
:100CB000DBB24033DBB25BB263F07F035BB2FB734A
:100CC000FB7B1846FFF738FF00BF1037BD4680BDDD
:100CD00080B582B000AF0346FB80FB88402B05D176
:100CE000594B1B8801339AB2574B1A80FB88802BD3
:100CF0001AD1564B01221A70554B1B78002B13D07A
:100D0000544B1A88544B1B685A630021524804F014
:100D100047F901224FF40051504802F050F80122E7
:100D200008214F4802F04BF8FB88B3F5805F4FD1A4
:100D30004C4B1B78002B14BF01230023DBB283F044
:100D40000103DBB203F00103DAB2464B1A70464BE3
:100D50001B78002B07D0454B1B78002B03D0444B4E
:100D600001221A7034E04FF40041424802F010F8BA
:100D70000346002B26D1404B1B78002B07D03E4B5F
:100D80005B78002B03D03C4B9B78002B03D13A4B74
:100D90001B78052B06D1394B01221A70384B0122E2
:100DA0001A7005E0354B01221A70354BFF221A707C
:100DB000334B93F9003013F1030F09D1304B01226B
:100DC0001A7005E02D4B01221A702D4BFE221A706D
:100DD0002B4B93F90030002B32D1FB88B3F5005F29
:100DE0000CD1254B1B780133DAB2234B1A70224BFE
:100DF0001B78052B02D9204B01221A70FB88B3F512
:100E0000804F0CD11C4B5B780133DAB21A4B5A700D
:100E1000194B5B780A2B02D9174B01225A70FB88B9
:100E2000B3F5004F0CD1144B9B780133DAB2124B5F
:100E30009A70114B9B78032B02D90F4B01229A70A9
:100E400000BF0837BD4680BD1A02002018020020EE
:100E5000170200201E020020840100200010014023
:100E6000000C014016020020000000202E0200208D
:100E70001402002000080140200200202D02002062
:100E8000150200200000000080B582B000AF78603D
:100E90007B681B681E4A93422ED11E4B1B88184646
:100EA000FFF7A8FA16A3D3E90023FFF755F9024686
:100EB0000B4610461946FFF719FD03461846FFF783
:100EC00099FA11A3D3E90023FFF728FC02460B4649
:100ED000104619464FF000020F4BFFF7F5FA024695
:100EE0000B4610461946FFF729FD0346DAB20B4BB5
:100EF0001A70084B00221A8000BF0837BD4680BD1B
:100F0000000000000094C1400000000000F8A14073
:100F1000000800401A020020000059401C02002076
:100F200080B582B002AF01F009FA00F079F800F064
:100F30002BFA00F0C7F800F05FF900F001F900F0BB
:100F40002DF900F0CFF94FF47A7001F059FAFFF75C
:100F500053FE642000F0E0FA274B00221A7000F0E4
:100F60009BFE642000F0D8FA244B1B78002B1ED087
:100F70004FF40041224801F00BFF0346002B0DD037
:100F8000204B1B78012B09D01F4B00221A701F4BDE
:100F900001221A701E4BFD221A7008E01D4B1978B1
:100FA0001D4B0093184B1A4A1C4800F083FE184B47
:100FB00093F90030012BD4D14FF40041104801F0D7
:100FC000E7FE0346002B0DD00E4B1B78012B09D0FA
:100FD0000D4B00221A700D4B01221A700C4BFD2292
:100FE0001A7008E00B4B19780B4B0093064B084A1C
:100FF0000A4800F05FFEB4E7000000201402002061
:101000000008014059020020170200202D02002094
:10101000150200201C0200201E02002020020020D9
:1010200080B594B000AF07F12803282200211846AC
:1010300004F0DAFE07F1140300221A605A609A6085
:10104000DA601A613B1D00221A605A609A60DA6009
:101050000223BB620123BB631023FB6300237B6479
:1010600007F12803184603F0EFF90346002B01D0DF
:1010700000F0FEFB0F237B610023BB610023FB61BB
:101080004FF480633B6200237B6207F1140300216D
:10109000184603F05BFC0346002B01D000F0E8FB90
:1010A00002237B600023FB603B1D184603F0C8FD54
:1010B0000346002B01D000F0DBFB00BF5037BD46DC
:1010C00080BD000080B584B000AF3B1D00221A60D7
:1010D0005A609A60184B194A1A60174B00229A609E
:1010E000154B00221A73144B00221A75124B4FF441
:1010F0006022DA61104B00225A600F4B01221A6104
:101100000D4801F0A1F90346002B01D000F0B0FB1F
:1011100002237B600123BB600023FB603B1D19465B
:10112000054801F069FA0346002B01D000F0A0FB4E
:1011300000BF1037BD4680BDAC0000200024014038
:1011400080B500AF124B134A1A60114B124A5A6015
:101150000F4B00229A600E4B0022DA600C4B4FF4CA
:1011600080421A610A4B00225A61094B00229A619F
:10117000074B0022DA61064B00221A62044801F094
:101180004FFE0346002B01D000F072FB00BF80BD74
:10119000DC00002000540040A086010080B500AFB4
:1011A000124B134A1A60114B124A5A600F4B00221D
:1011B0009A600E4B0022DA600C4B4FF480421A61A9
:1011C0000A4B00225A61094B00229A61074B002208
:1011D000DA61064B00221A62044801F021FE034640
:1011E000002B01D000F044FB00BF80BD3001002087
:1011F00000580040A086010080B58EB000AF07F116
:10120000280300221A605A609A60DA6007F120030E
:1012100000221A605A603B1D00221A605A609A60D0
:10122000DA601A615A619A612D4B4FF080421A6060
:101230002B4B4F225A602A4B00229A60284B4FF6C4
:10124000FE72DA60264B00221A61254B80229A61D9
:10125000234803F0ABFD0346002B01D000F008FB50
:101260004FF48053BB6207F1280319461C4804F071
:1012700085F90346002B01D000F0FAFA184803F074
:1012800037FE0346002B01D000F0F2FA00233B6248
:1012900000237B6207F120031946114804F00AFD80
:1012A0000346002B01D000F0E3FA00237B6000230B
:1012B000BB600023FB6000237B613B1D00221946BD
:1012C000074804F0FFF80346002B01D000F0D0FAE5
:1012D000034800F0FDFB00BF3837BD4680BD00BFAE
:1012E0008401002080B586B000AF07F1080300221A
:1012F0001A605A609A60DA603B4600221A605A60AF
:101300001F4B204A1A601E4B41F63F725A601C4B1D
:1013100000229A601A4B40F2E732DA60184B002242
:101320001A61174B80229A61154803F03FFD03466E
:10133000002B01D000F09CFA4FF48053BB6007F102
:10134000080319460E4804F019F90346002B01D092
:1013500000F08EFA00233B6000237B603B46194679
:10136000074804F0A7FC0346002B01D000F080FAE8
:10137000034803F06BFD00BF1837BD4680BD00BFBA
:10138000CC0100200008004080B588B000AF07F114
:10139000100300221A605A609A60DA60594B9B6908
:1013A000584A43F010039361564B9B6903F01003B6
:1013B000FB60FB68534B9B69524A43F020039361E7
:1013C000504B9B6903F02003BB60BB684D4B9B698E
:1013D0004C4A43F0040393614A4B9B6903F00403B6
:1013E0007B607B68474B9B69464A43F008039361E7
:1013F000444B9B6903F008033B603B6800224FF4B9
:101400000051414801F0DBFC002241F202013F485B
:1014100001F0D5FC002238213D4801F0D0FC4FF40A
:1014200000533B6101237B610023BB610223FB610D
:1014300007F110031946344801F026FB41F202037C
:101440003B6101237B610023BB610223FB6107F148
:10145000100319462D4801F017FB4FF470433B6110
:101460002C4B7B610023BB6107F110031946284810
:1014700001F00AFB4FF400433B6100237B61002332
:10148000BB6107F110031946204801F0FDFA38232B
:101490003B6101237B610023BB610223FB6107F1F8
:1014A000100319461A4801F0EFFA40233B61194B2B
:1014B0007B610223BB6107F110031946144801F058
:1014C000E3FA80233B61134B7B610123BB6107F18E
:1014D000100319460E4801F0D7FA00220021172008
:1014E00001F09BFA172001F0B4FA00220021282015
:1014F00001F093FA282001F0ACFA00BF2037BD4676
:1015000080BD00BF001002400010014000080140F3
:10151000000C01400000111080B594B000AF78605D
:10152000B74B1B78002B3BD000210120FFF7AEFB0F
:10153000B448FFF78FFBB448FFF7C2FA034687F8B9
:101540004B3097F94B30012B18D0012B00F355810C
:10155000B3F1FF3F02D0002B08D04EE10021022062
:10156000FFF794FBA948FFF775FB46E10021022035
:10157000FFF78CFBA648FFF76DFB3EE10021012041
:10158000FFF784FBA348FFF765FB00210220FFF76C
:101590007DFBA148FFF75EFBA04B01221A702CE1F6
:1015A0000023FB647EE09E4AFB6C52F823309D4989
:1015B000FA6C0A441278934271D09B4B01221A7044
:1015C00000F014FF0346994A1360964AFB6C1344DB
:1015D0001B781946924AFB6C42F82310FB6C002BD7
:1015E0001CD100210120FFF751FB9148FFF732FB8E
:1015F00000210220FFF74AFB894B1B68013B8D4A03
:1016000052F8232007F138038B49184604F0F4FB05
:1016100007F138031846FFF71DFBEEE0FB6C012BCA
:101620001FD100210120FFF731FB8448FFF712FB97
:101630007B4AFB6C52F8232013469B0013445B004B
:101640001A4607F128037E49184604F0D5FB00210D
:101650000220FFF71BFB07F128031846FFF7FAFAF1
:10166000CBE0FB6C022B1AD100210120FFF70EFB0F
:101670007448FFF7EFFA6A4AFB6C52F8232007F12F
:1016800018037149184604F0B7FB00210220FFF748
:10169000FDFA07F118031846FFF7DCFAADE0FB6C22
:1016A0000133FB64FB6C022B7FF77DAF674B93F933
:1016B0000030012B04D15C4B1B78002B40F09C8048
:1016C000624B93F90030B3F1FF3F18D1564B1B78B2
:1016D000002B14D0544B00221A7000210120FFF778
:1016E000D5FA5B48FFF7B6FA00210220FFF7CEFAE1
:1016F0005848FFF7AFFA554B00221A707DE0534B64
:1017000093F9003013F1020F18D1474B1B78002BCF
:1017100014D0454B00221A7000210120FFF7B6FAC1
:101720004D48FFF797FA00210220FFF7AFFA4B4828
:10173000FFF790FA454B00221A705EE0434B93F995
:10174000003013F1030F18D1374B1B78002B14D046
:10175000354B00221A7000210120FFF797FA40480C
:10176000FFF778FA00210220FFF790FA3D48FFF7D3
:1017700071FA364B00221A703FE000F037FE024645
:101780002A4B1B68D31AB3F5FA6F36D9264B1B7850
:10179000002B32D0244B00221A70FFF770FA204B36
:1017A0001B68013B234A52F8232007F108032E4906
:1017B000184604F021FB00210120FFF767FA07F12A
:1017C00008031846FFF746FA154B5A6813469B0064
:1017D00013445B001A46124B9B6807F1080023492B
:1017E00004F00AFB00210220FFF750FA07F108037A
:1017F0001846FFF72FFA00E000BF5037BD4680BD06
:10180000000000205C6700082402002070670008C8
:10181000806700088C670008A06700082E0200207F
:1018200030020020200200202D0200203C02002077
:10183000B467000804000020C8670008D8670008E3
:10184000EC67000800680008146800081502002012
:10185000286800083C6800085068000864680008B0
:10186000786800088C680008A0680008A468000870
:1018700080B400AF72B600BFFEE7000080B485B050
:1018800000AF154B9B69144A43F001039361124B5F
:101890009B6903F00103BB60BB680F4BDB690E4A19
:1018A00043F08053D3610C4BDB6903F080537B60C2
:1018B0007B680A4B5B68FB60FB6823F0E063FB60BE
:1018C000FB6843F00073FB60044AFB68536000BF91
:1018D0001437BD4680BC7047001002400000014034
:1018E00080B588B000AF786007F1100300221A605D
:1018F0005A609A60DA607B681B68144A934221D16F
:10190000134B9B69124A43F400739361104B9B691C
:1019100003F40073FB60FB680D4B9B690C4A43F0BA
:10192000040393610A4B9B6903F00403BB60BB682B
:1019300004233B6103237B6107F11003194605482B
:1019400001F0A2F800BF2037BD4680BD0024014051
:10195000001002400008014080B58CB000AF7860F4
:1019600007F11C0300221A605A609A60DA607B68F3
:101970001B68324A934233D1314B9B69304A43F062
:10198000080393612E4B9B6903F00803BB61BB699D
:101990004FF44073FB6112233B620323BB6207F1E8
:1019A0001C031946274801F06FF8274B5B68FB6260
:1019B000FB6A43F0E063FB62FB6A43F00203FB62F5
:1019C000214AFB6A53601E4BDB691D4A43F4001336
:1019D000D3611B4BDB6903F400137B617B6929E056
:1019E0007B681B68194A934224D1154B9B69144AA2
:1019F00043F008039361124B9B6903F008033B61BA
:101A00003B694FF44063FB6112233B620323BB62DB
:101A100007F11C0319460B4801F036F8084BDB6947
:101A2000074A43F48003D361054BDB6903F4800369
:101A3000FB60FB6800BF3037BD4680BD00540040EE
:101A400000100240000C014000000140005800401E
:101A500080B584B000AF78607B681B68B3F1804FBD
:101A600014D1194BDB69184A43F00103D361164BBB
:101A7000DB6903F00103FB60FB68002200211C20EE
:101A800000F0CBFF1C2000F0E4FF18E07B681B682F
:101A90000E4A934213D10C4BDB690B4A43F004030B
:101AA000D361094BDB6903F00403BB60BB68002210
:101AB00000211E2000F0B1FF1E2000F0CAFF00BF71
:101AC0001037BD4680BD00BF001002400008004036
:101AD00080B588B000AF786007F1100300221A606B
:101AE0005A609A60DA607B681B68B3F1804F17D147
:101AF0000D4B9B690C4A43F0040393610A4B9B69AD
:101B000003F00403FB60FB6801233B6102237B615C
:101B10000223FB6107F110031946044800F0B4FFEB
:101B200000BF2037BD4680BD0010024000080140C4
:101B300080B400AFFEE780B400AFFEE780B400AF32
:101B4000FEE780B400AFFEE780B400AFFEE780B4EC
:101B500000AF00BFBD4680BC704780B400AF00BF7F
:101B6000BD4680BC704780B400AF00BFBD4680BC9E
:101B7000704780B500AF00F027FC00BF80BD80B586
:101B800000AF402001F034F9802001F031F900BFAE
:101B900080BD000080B500AF0F4B1B68DB6803F011
:101BA0000203022B13D100224FF400510B4801F025
:101BB00006F9002208210A4801F001F9064B1B68CA
:101BC0006FF002021A610021034803F0D9FA0248BB
:101BD00003F088FB00BF80BD84010020001001409D
:101BE000000C014080B500AF024803F07BFB00BF52
:101BF00080BD00BFCC01002080B500AF4FF4805005
:101C000001F0F6F84FF4005001F0F2F84FF4804084
:101C100001F0EEF84FF4004001F0EAF800BF80BD9B
:101C200080B586B000AF7860144A154BD31A7B613B
:101C30007B693B61134B1B68002B02D1114B124A8D
:101C40001A60104B1A687B6813443A699A4207D2AB
:101C500004F0A0F803460C221A604FF0FF3309E0AD
:101C6000084B1B68FB60074B1A687B681344054AE6
:101C70001360FB6818461837BD4680BD0050002031
:101C800000040000400200209002002080B400AF59
:101C900000BFBD4680BC704780B400AF034B044A10
:101CA0001A6000BFBD4680BC704700BF5C020020C8
:101CB000A11D000880B584B000AFF8607A603B6079
:101CC0000B46FB722E4B1B78002B02D07B68002248
:101CD0001A702C4AFB7A13702B4A3B6813602B4B0B
:101CE0001B682B4A934244D1254B00221A70FB6893
:101CF0001A78284B1A70FB685A78264B5A70FB6882
:101D00009A78244B9A70BB694FF47A721A80214BEF
:101D10001B78013B042B28D801A252F823F000BF06
:101D2000351D00083F1D0008491D0008531D00080F
:101D3000651D0008184B43F698221A6015E0164BF3
:101D400046F2A8121A6010E0134B42F210721A60A9
:101D50000BE0114B43F698221A60BB6940F2EE2269
:101D60001A8002E00C4B00221A600A4B9A780B4B47
:101D70001A70064B1B68984700BF1037BD4680BDE0
:101D80004D02002047020020500200205C0200208B
:101D9000A11D000844020020480200204C0200203F
:101DA00080B483B000AF7860034B044A1A6000BF70
:101DB0000C37BD4680BC70475C020020C11D000886
:101DC00080B584B000AF194B1B78052B03D1184B9D
:101DD000184A1A6025E0184B01221A7000210120D0
:101DE000FEF754FF1548FEF735FF154B1B781946D3
:101DF0000E4B5B781A4613469B0013445B009942D6
:101E000006DC01224FF480510E4800F0D8FF08E0B4
:101E100000224FF480510B4800F0D1FF044B0A4AD6
:101E20001A6000BF1037BD4680BD00BF44020020CD
:101E30005C0200202D21000859020020B86800082B
:101E400047020020000801404D1E000890B585B0F3
:101E500000AF6F4B02221A706E4B1A686E4B1B68F4
:101E6000D41800F0C3FA0346E31A6C4A13606C4BB3
:101E70001B78002B0BD000F0B9FA0346654A1360BB
:101E8000644B1B68674A1360654B00221A7000217F
:101E90000120FEF7FBFE644B1B78002B01D0634B47
:101EA00000E0634B1846FEF7D5FE00F09FFA0246AD
:101EB000584B1B68D21A584B1B6838465D4903F0D3
:101EC0009BFF00210220FEF7E1FE3B461846FEF78D
:101ED000C1FE594B1B78022B57D000F087FA0246FF
:101EE0004C4B1B68D21A4C4B1B689A4242D200F0F2
:101EF0007DFA0246474B1B68D31A42F20F72934297
:101F000009D900F073FA0246424B1B68D31A43F614
:101F10009822934229D9494B1B6801221A7000F07C
:101F200065FA02463F4B1B68D31A40F6B83293421B
:101F300013D93D4B1B78002B14BF01230023DBB2C8
:101F400083F00103DBB203F00103DAB2364B1A70FF
:101F500000F04CFA0346334A1360334B1B781A46A1
:101F60002021374800F02BFF4DE0344B1B68002246
:101F70001A7048E0314B1B6800221A70284B01226E
:101F80001A70304B304A1A603DE000F02FFA0246DA
:101F9000204B1B68D21A204B1B689A4229D2274B30
:101FA0001B6801221A7000F021FA02461D4B1B68C3
:101FB000D31A40F6B832934213D91B4B1B78002B2F
:101FC00014BF01230023DBB283F00103DBB203F073
:101FD0000103DAB2144B1A7000F008FA0346114AF2
:101FE0001360114B1B781A462021154800F0E7FEBC
:101FF00009E0124B1B6800221A70094B01221A706B
:10200000104B114A1A6000BF1437BD4690BD00BF87
:1020100059020020600200204802002054020020E3
:102020001C0000206402002068020020BC68000838
:10203000D0680008E4680008440200205002002034
:10204000000C01405C0200204D20000880B584B0E7
:1020500000AF2A4B03221A70294B1A78294B1A70A9
:1020600000210120FEF712FE2748FEF7F3FD274B63
:102070001B781A46224B1B783846254903F0BCFED4
:1020800000210220FEF702FE3B461846FEF7E2FD65
:102090001E4B1B78092B0BD9012210211D4800F083
:1020A0008EFE01224FF400511B4800F088FE20E014
:1020B00000221021174800F082FE00224FF4005148
:1020C000154800F07CFE0E4B1B780133DAB20C4B46
:1020D0001A70124B9A780A4B1B789A4203D0104B15
:1020E000104A1A6005E0064B00221A700C4B0E4A8B
:1020F0001A6000BF1037BD4680BD00BF59020020E6
:102100006902002058020020F468000847020020FD
:1021100008690008000C0140001001404402002042
:102120005C020020C11D00082D21000880B584B08C
:1021300000AF2D4B04221A702C4B1B78002B07D0BC
:1021400000F054F903462A4A1360284B00221A7003
:1021500000F04CF90246264B1B68D21A244B1B6830
:102160003846244903F048FE00210120FEF78EFD89
:102170002148FEF76FFD00210220FEF787FD3B4658
:102180001846FEF767FD00F031F90246184B1B6850
:10219000D31A42F20F7293420ED80122102117482F
:1021A00000F00DFE164B1B6801221A70012220213F
:1021B000124800F004FE13E0002210210F4800F046
:1021C000FEFD0F4B1B6800221A70002220210B48D5
:1021D00000F0F5FD054B01221A700A4B0A4A1A60FD
:1021E00000BF1037BD4680BD590200201D000020F1
:1021F0006C0200202469000830690008000C0140CE
:10220000500200205C0200200D22000880B500AFC3
:10221000FEF735FD04210220FEF738FD2B48FEF7BE
:1022200019FD2B4B1B78002B0AD000F0DFF803467A
:10223000284A1360264B00221A70274B00221A707E
:10224000254B1B78032B11D9244B01221A70204BEC
:1022500001221A7000220221214800F0B0FD214B1A
:10226000214A1A60642000F0CBF82CE000F0BEF8A0
:102270000246184B1B68D31AB3F5487F1CD91B4B79
:102280001B78002B14BF01230023DBB283F0010372
:10229000DBB203F00103DAB2144B1A70134B1B7854
:1022A0001A460D4B1B781344DAB20B4B1A7000F030
:1022B0009DF80346074A13600C4B1B781A4602210F
:1022C000074800F07CFD00BF80BD00BF44690008E6
:1022D0001E00002070020020740200204D02002029
:1022E000000801405C020020A11D000875020020CA
:1022F000FFF7CCFC0B480C490C4A002302E0D458F1
:10230000C4500433C4188C42F9D3094A094C002341
:1023100001E013600432A242FBD303F041FDFEF75B
:10232000FFFD7047000000208C000020B869000805
:102330008C0000208C020020FEE7000080B500AF7A
:10234000084B1B68074A43F010031360032000F09A
:1023500059FB0F2000F008F8FFF790FA0023184609
:1023600080BD00BF0020024080B582B000AF786021
:10237000124B1A68124B1B7819464FF47A73B3FB51
:10238000F1F3B2FBF3F3184600F071FB0346002BA8
:1023900001D001230EE07B680F2B0AD80022796858
:1023A0004FF0FF3000F039FB064A7B6813600023D2
:1023B00000E0012318460837BD4680BD1800002004
:1023C000240000202000002080B400AF054B1B78C3
:1023D0001A46054B1B681344034A136000BFBD46F1
:1023E00080BC7047240000207802002080B400AF39
:1023F000024B1B681846BD4680BC7047780200201F
:1024000080B584B000AF7860FFF7F0FFB8607B68FC
:10241000FB60FB68B3F1FF3F05D00A4B1B781A46FF
:10242000FB681344FB6000BFFFF7E0FF0246BB6898
:10243000D31AFA689A42F7D800BF00BF1037BD46DA
:1024400080BD00BF2400002080B586B000AF78605A
:102450000023FB7500233B610023BB600023FB606E
:102460007B68002B01D10123BEE07B689B68002BB9
:102470007B689B6A002B09D17B680022DA627B684B
:10248000002283F824207868FFF72AFA786800F0A1
:10249000ABF90346FB757B689B6A03F01003002BC6
:1024A00040F09980FB7D002B40F095807B689B6A13
:1024B00023F4885323F0020343F002027B689A62FC
:1024C0007B685A687B68DB691A437B681B7B5B000F
:1024D0001343BA681343BB607B689B68B3F5807F86
:1024E00003D07B689B68012B02D14FF4807300E01E
:1024F00000233A6913433B617B681B7D012B19D193
:102500007B681B7B002B09D17B689B69013B5A03CD
:102510003B69134343F400633B610BE07B689B6AB8
:1025200043F020027B689A627B68DB6A43F0010219
:102530007B68DA627B681B685B6823F469417B68AF
:102540001B683A690A435A607B681B689A68284B83
:1025500013407A681268B9680B4393607B689B6884
:10256000B3F5807F03D07B689B68012B04D17B6827
:102570001B69013B1B05FB607B681B68DB6A23F45E
:1025800070017B681B68FA680A43DA627B681B6823
:102590009A68184B1340BA689A420BD17B680022A4
:1025A000DA627B689B6A23F0030343F001027B68D5
:1025B0009A6218E07B689B6A23F0120343F01002D2
:1025C0007B689A627B68DB6A43F001027B68DA62AF
:1025D0000123FB7507E07B689B6A43F010027B6870
:1025E0009A620123FB75FB7D18461837BD4680BDF6
:1025F000FDF7E1FFFE0E1FFF80B485B000AF7860ED
:1026000039600023FB730023BB607B6893F82430A0
:10261000012B01D10223DCE07B68012283F8242016
:102620003B685B68062B1CD87B681B68596B3B6852
:102630005A6813469B001344053B1F2202FA03F31A
:10264000DB4319403B6818683B685A6813469B0097
:102650001344053B00FA03F27B681B680A435A6384
:102660003CE03B685B680C2B1CD87B681B68196BD3
:102670003B685A6813469B001344233B1F2202FA0F
:1026800003F3DB4319403B6818683B685A681346FC
:102690009B001344233B00FA03F27B681B680A4348
:1026A0001A631BE07B681B68D96A3B685A6813464B
:1026B0009B001344413B1F2202FA03F3DB43194002
:1026C0003B6818683B685A6813469B001344413BBB
:1026D00000FA03F27B681B680A43DA623B681B68F6
:1026E000092B1CD97B681B68D9683B681A6813469C
:1026F0005B0013441E3B072202FA03F3DB4319403D
:102700003B6898683B681A6813465B0013441E3B9D
:1027100000FA03F27B681B680A43DA6019E07B6801
:102720001B6819693B681A6813465B00134407224B
:1027300002FA03F3DB4319403B6898683B681A6868
:1027400013465B00134400FA03F27B681B680A43DC
:102750001A613B681B68102B03D03B681B68112B68
:1027600032D17B681B681D4A934225D17B681B6868
:102770009B6803F40003002B26D17B681B689A68D2
:102780007B681B6842F400029A603B681B68102B50
:102790001AD1134B1B68134AA2FB03239A0C13464E
:1027A0009B0013445B00BB6002E0BB68013BBB6065
:1027B000BB68002BF9D107E07B689B6A43F02002DD
:1027C0007B689A620123FB737B68002283F82420D4
:1027D000FB7B18461437BD4680BC7047002401407F
:1027E0001800002083DE1B4380B584B000AF786002
:1027F0000023FB607B681B689B6803F00103012BCF
:102800002ED17B681B689A687B681B6822F00102E6
:102810009A60FFF7EBFDF8601BE0FFF7E7FD02466B
:10282000FB68D31A022B14D97B681B689B6803F0E2
:102830000103012B0DD17B689B6A43F010027B687A
:102840009A627B68DB6A43F001027B68DA620123EB
:1028500007E07B681B689B6803F00103012BDCD059
:10286000002318461037BD4680BD000080B485B0F7
:1028700000AF78607B6803F00703FB600C4BDB68FC
:10288000BB60BA684FF6FF031340BB60FB681A02D7
:10289000BB68134343F0BF6343F40033BB60044A97
:1028A000BB68D36000BF1437BD4680BC704700BF13
:1028B00000ED00E080B400AF044BDB681B0A03F0BE
:1028C00007031846BD4680BC704700BF00ED00E01E
:1028D00080B483B000AF0346FB7197F90730002B3B
:1028E0000BDBFB7903F01F02064997F907305B0900
:1028F000012000FA02F241F8232000BF0C37BD4648
:1029000080BC704700E100E080B483B000AF0346B4
:102910003960FB7197F90730002B0ADB3B68DAB2AC
:102920000C4997F907301201D2B20B4483F8002307
:102930000AE03B68DAB20849FB7903F00F03043B75
:102940001201D2B20B441A7600BF0C37BD4680BCD0
:10295000704700BF00E100E000ED00E080B489B006
:1029600000AFF860B9607A60FB6803F00703FB61B1
:10297000FB69C3F10703042B28BF0423BB61FB6978
:102980000433062B02D9FB69033B00E000237B6183
:102990004FF0FF32BB6902FA03F3DA43BB681A4017
:1029A0007B699A404FF0FF317B6901FA03F3D94309
:1029B0007B680B40134318462437BD4680BC7047E4
:1029C00080B582B000AF78607B68013BB3F1807F57
:1029D00001D301230FE00A4A7B68013B53600F21BA
:1029E0004FF0FF30FFF790FF054B00229A60044B39
:1029F00007221A60002318460837BD4680BD00BF75
:102A000010E000E080B582B000AF78607868FFF732
:102A10002DFF00BF0837BD4680BD80B586B000AF32
:102A20000346B9607A60FB7300237B61FFF742FFC6
:102A300078617A68B9687869FFF790FF024697F97C
:102A40000F3011461846FFF75FFF00BF1837BD462D
:102A500080BD80B582B000AF0346FB7197F90730A7
:102A60001846FFF735FF00BF0837BD4680BD80B56B
:102A700082B000AF78607868FFF7A2FF034618467F
:102A80000837BD4680BD000080B48BB000AF7860D1
:102A9000396000237B6200233B6269E101227B6A8B
:102AA00002FA03F3FB613B681B68FA691340BB61E0
:102AB000BA69FB699A4240F058813B685B689A4A60
:102AC00093425ED0984A934275D8984A934258D020
:102AD000964A93426FD8964A934252D0944A934270
:102AE00069D8944A93424CD0924A934263D8924A0E
:102AF000934246D0904A93425DD8122B2AD8122B8B
:102B000059D801A252F823F0832B00085D2B00084E
:102B10006F2B0008B12B0008B72B0008B72B00085B
:102B2000B72B0008B72B0008B72B0008B72B0008FD
:102B3000B72B0008B72B0008B72B0008B72B0008ED
:102B4000B72B0008B72B0008B72B0008652B00082F
:102B5000792B0008794A934213D02CE03B68DB685C
:102B60003B6229E03B68DB6804333B6224E03B685E
:102B7000DB6808333B621FE03B68DB680C333B6279
:102B80001AE03B689B68002B02D104233B6213E0F0
:102B90003B689B68012B05D108233B627B68FA697F
:102BA0001A6109E008233B627B68FA695A6103E015
:102BB00000233B6200E000BFBB69FF2B01D87B68AC
:102BC00001E07B6804337B61BB69FF2B02D87B6A21
:102BD0009B0002E07B6A083B9B003B617B691A68B3
:102BE0000F213B6901FA03F3DB431A40396A3B6961
:102BF00001FA03F31A437B691A603B685B6803F0D0
:102C00008053002B00F0B1804D4B9B694C4A43F040
:102C1000010393614A4B9B6903F00103BB60BB68EE
:102C2000484A7B6A9B08023352F82330FB607B6A78
:102C300003F003039B000F2202FA03F3DB43FA685D
:102C40001340FB607B68404A934213D07B683F4A45
:102C500093420DD07B683E4A934207D07B683D4A41
:102C6000934201D1032306E0042304E0022302E09F
:102C7000012300E000237A6A02F0030292009340ED
:102C8000FA681343FB602F497B6A9B080233FA689A
:102C900041F823203B685B6803F48013002B06D0C7
:102CA0002D4B9A682C49BB6913438B6006E02A4B75
:102CB0009A68BB69DB43284913408B603B685B68BB
:102CC00003F40013002B06D0234BDA682249BB69BA
:102CD0001343CB6006E0204BDA68BB69DB431E4937
:102CE0001340CB603B685B6803F40033002B06D0D5
:102CF000194B5A681849BB6913434B6006E0164BE1
:102D00005A68BB69DB43144913404B603B685B68FE
:102D100003F48033002B21D00F4B1A680E49BB6996
:102D200013430B6021E000BF00003210000031109F
:102D300000002210000021100000121000001110ED
:102D4000001002400000014000080140000C01405A
:102D50000010014000140140000401400B4B1A68B0
:102D6000BB69DB43094913400B607B6A01337B621B
:102D70003B681A687B6A22FA03F3002B7FF48EAE5D
:102D800000BF00BF2C37BD4680BC70470004014027
:102D900080B485B000AF78600B467B807B689A6812
:102DA0007B881340002B02D00123FB7301E000233A
:102DB000FB73FB7B18461437BD4680BC704780B45C
:102DC00083B000AF78600B467B8013467B707B78C6
:102DD000002B03D07A887B681A6103E07B881A0491
:102DE0007B681A6100BF0C37BD4680BC704700008D
:102DF00080B582B000AF0346FB80084B5A69FB8860
:102E00001340002B06D0054AFB885361FB88184607
:102E1000FDF75EFF00BF0837BD4680BD00040140DE
:102E200080B584B000AF78607B68002B01D10123AE
:102E30002BE17B6893F83D30DBB2002B06D17B6839
:102E4000002283F83C207868FEF786FD7B68242208
:102E500083F83D207B681B681A687B681B6822F03A
:102E600001021A607B681B681A687B681B6842F461
:102E700000421A607B681B681A687B681B6822F432
:102E800000421A6001F0AAFEF8607B685B68814A24
:102E9000934207D8FB68804A934294BF01230023E2
:102EA000DBB206E0FB687D4A934294BF0123002316
:102EB000DBB2002B01D00123E7E0FB68784AA2FBDC
:102EC00003239B0CBB607B681B685B6823F03F019E
:102ED0007B681B68BA680A435A607B681B681B6A78
:102EE00023F03F017B685B686A4A934202D8BB6863
:102EF000013309E0BB684FF4967202FB03F3694AA1
:102F0000A2FB03239B0901337A6812680B43136207
:102F10007B681B68DB6923F44F4222F0FF027B6869
:102F20005B685C498B4219D8FB68591E7B685B68FB
:102F30005B00B1FBF3F3591C40F6FC730B40002B14
:102F40000AD0FB68591E7B685B685B00B1FBF3F33A
:102F50000133C3F30B0351E004234FE07B689B680C
:102F6000002B11D1FB68581E7B6859680B465B002B
:102F70000B44B0FBF3F30133C3F30B03002B0CBF83
:102F800001230023DBB212E0FB68581E7B685968FE
:102F90000B469B000B4499000B44B0FBF3F3013349
:102FA000C3F30B03002B0CBF01230023DBB2002B68
:102FB00001D0012322E07B689B68002B0ED1FB68C7
:102FC000581E7B6859680B465B000B44B0FBF3F35B
:102FD0000133C3F30B0343F400430FE0FB68581EB7
:102FE0007B6859680B469B000B4499000B44B0FB6F
:102FF000F3F30133C3F30B0343F4404379680968E7
:103000001343CB617B681B681B6823F0C0017B689E
:10301000DA697B681B6A1A437B681B680A431A607B
:103020007B681B689B6823F4034323F0FF037A68E3
:1030300011697A68D26811437A6812680B43936009
:103040007B681B68DB6823F0FF017B685A697B683B
:103050009B691A437B681B680A43DA607B681B68BC
:103060001A687B681B6842F001021A607B680022C4
:103070001A647B68202283F83D207B6800221A6353
:103080007B68002283F83E20002318461037BD4697
:1030900080BD00BFA08601007F841E00FF083D00A8
:1030A00083DE1B43D34D621080B588B002AFF86059
:1030B0007A601A460B467B8113463B81FFF796F9EF
:1030C0007861FB6893F83D30DBB2202B40F0E08064
:1030D0007B690093192301227049F86800F07EFF94
:1030E0000346002B01D00223D3E0FB6893F83C3069
:1030F000012B01D10223CCE0FB68012283F83C20A4
:10310000FB681B681B6803F00103012B07D0FB68F9
:103110001B681A68FB681B6842F001021A60FB68B2
:103120001B681A68FB681B6822F400621A60FB685F
:10313000212283F83D20FB68102283F83E20FB68A3
:1031400000221A64FB687A685A62FB683A895A85D9
:10315000FB685B8D9AB2FB681A85FB68504ADA629D
:1031600079897B693A6AF86800F038FD0346002BDC
:1031700001D001238DE000233B61FB681B685B6984
:103180003B61FB681B689B693B613B6966E07A6950
:10319000396AF86801F03CF80346002B0DD0FB6853
:1031A0001B6C042B07D1FB681B681A68FB681B6843
:1031B00042F400721A6001236BE0FB685B6A1A78C4
:1031C000FB681B681A61FB685B6A5A1CFB685A62E1
:1031D000FB685B8D9BB2013B9AB2FB685A85FB682A
:1031E0001B8D013B9AB2FB681A85FB681B685B6903
:1031F00003F00403042B1BD1FB681B8D002B17D09D
:10320000FB685B6A1A78FB681B681A61FB685B6A7B
:103210005A1CFB685A62FB685B8D9BB2013B9AB2F9
:10322000FB685A85FB681B8D013B9AB2FB681A85C7
:103230007A69396AF86801F033F80346002B0DD03B
:10324000FB681B6C042B07D1FB681B681A68FB68C2
:103250001B6842F400721A6001231AE0FB681B8DA0
:10326000002B94D1FB681B681A68FB681B6842F44A
:1032700000721A60FB68202283F83D20FB68002260
:1032800083F83E20FB68002283F83C20002300E006
:10329000022318461837BD4680BD00BF020010004B
:1032A0000000FFFF80B588B002AFF8600846114605
:1032B0001A4603467B810B463B811346FB80FFF792
:1032C00095F87861FB6893F83D30DBB2202B40F035
:1032D000D9807B690093192301226D49F86800F0B9
:1032E0007DFE0346002B01D00223CCE0FB6893F85F
:1032F0003C30012B01D10223C5E0FB68012283F899
:103300003C20FB681B681B6803F00103012B07D0FE
:10331000FB681B681A68FB681B6842F001021A60B0
:10332000FB681B681A68FB681B6822F400621A605D
:10333000FB68212283F83D20FB68402283F83E2071
:10334000FB6800221A64FB683A6A5A62FB68BA8C0E
:103350005A85FB685B8D9AB2FB681A85FB684D4AFB
:10336000DA62F8883A8979897B690193BB6A0093AC
:103370000346F86800F0B4FC0346002B52D001234A
:1033800081E07A69B96AF86800F042FF0346002BD1
:103390000DD0FB681B6C042B07D1FB681B681A68F7
:1033A000FB681B6842F400721A6001236BE0FB6843
:1033B0005B6A1A78FB681B681A61FB685B6A5A1CB7
:1033C000FB685A62FB681B8D013B9AB2FB681A8549
:1033D000FB685B8D9BB2013B9AB2FB685A85FB6828
:1033E0001B685B6903F00403042B1BD1FB681B8D76
:1033F000002B17D0FB685B6A1A78FB681B681A61A0
:10340000FB685B6A5A1CFB685A62FB681B8D013BB8
:103410009AB2FB681A85FB685B8D9BB2013B9AB23E
:10342000FB685A85FB681B8D002BAAD17A69B96AA3
:10343000F86800F035FF0346002B0DD0FB681B6CCD
:10344000042B07D1FB681B681A68FB681B6842F4F1
:1034500000721A60012316E0FB681B681A68FB689B
:103460001B6842F400721A60FB68202283F83D203A
:10347000FB68002283F83E20FB68002283F83C2092
:10348000002300E0022318461837BD4680BD00BF68
:10349000020010000000FFFF80B58CB002AFF860A2
:1034A000084611461A4603467B810B463B8113466C
:1034B000FB8000233B62FEF799FF7862FB6893F87C
:1034C0003D30DBB2202B40F050827B6A0093192301
:1034D00001228249F86800F081FD0346002B01D0EB
:1034E000022343E2FB6893F83C30012B01D1022315
:1034F0003CE2FB68012283F83C20FB681B681B68E8
:1035000003F00103012B07D0FB681B681A68FB68F6
:103510001B6842F001021A60FB681B681A68FB68AE
:103520001B6822F400621A60FB68222283F83D20A7
:10353000FB68402283F83E20FB6800221A64FB6887
:103540003A6B5A62FB68BA8E5A85FB685B8D9AB2F9
:10355000FB681A85FB68624ADA62F8883A897989D9
:103560007B6A0193BB6B00930346F86800F04EFC46
:103570000346002B01D00123F8E1FB681B8D002BD3
:1035800013D10023FB61FB681B685B69FB61FB686F
:103590001B689B69FB61FB69FB681B681A68FB6819
:1035A0001B6842F400721A60CCE1FB681B8D012B92
:1035B0001ED1FB681B681A68FB681B6822F48062D6
:1035C0001A6072B600BF0023BB61FB681B685B69B1
:1035D000BB61FB681B689B69BB61BB69FB681B68BF
:1035E0001A68FB681B6842F400721A6062B635E024
:1035F000FB681B8D022B1ED1FB681B681A68FB68D9
:103600001B6842F400621A6072B600BF00237B613F
:10361000FB681B685B697B61FB681B689B697B615E
:103620007B69FB681B681A68FB681B6822F4806270
:103630001A6062B612E0FB681B681A68FB681B68B8
:1036400042F480621A6000233B61FB681B685B697F
:103650003B61FB681B689B693B613B6972E1FB68EE
:103660001B8D032B00F21F81FB681B8D012B23D1C7
:103670007A6AB96BF86800F05BFE0346002B01D054
:10368000012373E1FB681B681A69FB685B6AD2B2AD
:103690001A70FB685B6A5A1CFB685A62FB681B8DD8
:1036A000013B9AB2FB681A85FB685B8D9BB2013BBC
:1036B0009AB2FB685A8545E1FB681B8D022B52D1FB
:1036C0007B6A0093BB6B00220649F86800F086FC19
:1036D0000346002B08D0012348E100BF0200100080
:1036E0000000FFFF0400010072B600BFFB681B680A
:1036F0001A68FB681B6842F400721A60FB681B685A
:103700001A69FB685B6AD2B21A70FB685B6A5A1C62
:10371000FB685A62FB681B8D013B9AB2FB681A85F5
:10372000FB685B8D9BB2013B9AB2FB685A8562B61F
:1037300000BFFB681B681A69FB685B6AD2B21A702B
:10374000FB685B6A5A1CFB685A62FB681B8D013B75
:103750009AB2FB681A85FB685B8D9BB2013B9AB2FB
:10376000FB685A85EEE07B6A0093BB6B00228149BF
:10377000F86800F033FC0346002B01D00123F5E08C
:10378000FB681B681A68FB681B6822F480621A6079
:1037900072B600BFFB681B681A69FB685B6AD2B22D
:1037A0001A70FB685B6A5A1CFB685A62FB681B8DC7
:1037B000013B9AB2FB681A85FB685B8D9BB2013BAB
:1037C0009AB2FB685A856C4B1B68DB086B4AA2FBFC
:1037D00003231A0A13469B001344DA00D31A3B62F0
:1037E0003B6A013B3B623B6A002B18D1FB6800221D
:1037F0001A63FB68202283F83D20FB68002283F8CF
:103800003E20FB681B6C43F02002FB681A6462B622
:1038100000BFFB68002283F83C200123A6E0FB6880
:103820001B685B6903F00403042BD9D1FB681B6898
:103830001A68FB681B6842F400721A60FB681B6818
:103840001A69FB685B6AD2B21A70FB685B6A5A1C21
:10385000FB685A62FB681B8D013B9AB2FB681A85B4
:10386000FB685B8D9BB2013B9AB2FB685A8562B6DE
:1038700000BFFB681B681A69FB685B6AD2B21A70EA
:10388000FB685B6A5A1CFB685A62FB681B8D013B34
:103890009AB2FB681A85FB685B8D9BB2013B9AB2BA
:1038A000FB685A854EE07A6AB96BF86800F040FD13
:1038B0000346002B01D0012358E0FB681B681A69FE
:1038C000FB685B6AD2B21A70FB685B6A5A1CFB68C1
:1038D0005A62FB681B8D013B9AB2FB681A85FB6834
:1038E0005B8D9BB2013B9AB2FB685A85FB681B68F3
:1038F0005B6903F00403042B24D1FB681B8D032BAD
:1039000007D1FB681B681A68FB681B6822F4806299
:103910001A60FB681B681A69FB685B6AD2B21A708E
:10392000FB685B6A5A1CFB685A62FB681B8D013B93
:103930009AB2FB681A85FB685B8D9BB2013B9AB219
:10394000FB685A85FB681B8D002B7FF488AEFB68F3
:10395000202283F83D20FB68002283F83E20FB688C
:10396000002283F83C20002300E002231846283779
:10397000BD4680BD040001001800002089B5F81480
:1039800080B58AB002AFF8607A603B600B467B81FD
:10399000FEF72CFDF8610023BB61FB6893F83D3016
:1039A000DBB2202B40F01181FB6900931923012227
:1039B0008849F86800F012FB0346002B01D002236F
:1039C00004E1FB6893F83C30012B01D10223FDE0B8
:1039D000FB68012283F83C20FB681B681B6803F02E
:1039E0000103012B07D0FB681B681A68FB681B6882
:1039F00042F001021A60FB681B681A68FB681B68CA
:103A000022F400621A60FB68242283F83D20FB68E0
:103A100000221A64FB68704ADA62FB681B681A6845
:103A2000FB681B6842F480721A60FB6900933B6874
:103A300000224FF00111F86800F0D0FA0346002B85
:103A40000DD0FB681B681B6803F48073B3F5807F9F
:103A500003D1FB684FF400721A640323B6E07B893C
:103A6000DBB21A46FB681B6802F0FE021A61FEF721
:103A7000BDFCF861FB681B685B6903F00203022B65
:103A80000CBF01230023DBB2FB75FB681B685B697D
:103A900003F48063B3F5806F0CBF01230023DBB216
:103AA000BB7525E0FEF7A2FC0246FB69D31A3A6813
:103AB0009A4202D33B68002B03D1FB68A02283F813
:103AC0003D20FB681B685B6903F00203022B0CBFFF
:103AD00001230023DBB2FB75FB681B685B6903F401
:103AE0008063B3F5806F0CBF01230023DBB2BB758D
:103AF000FB6893F83D30DBB2A02B05D0FB7D002B9B
:103B000002D1BB7D002BCDD0FB68202283F83D2065
:103B1000FB681B685B6903F00203022B29D1FB6879
:103B20001B681A68FB681B6842F400721A60002365
:103B30003B61FB681B685B693B61FB681B689B69B9
:103B40003B613B69FB690093192301222149F86815
:103B500000F044FA0346002B01D0012336E0FB6855
:103B6000202283F83D20FB68002283F83C200023BC
:103B70002CE0FB681B681A68FB681B6842F4007243
:103B80001A60FB681B686FF480625A61FB690093DE
:103B9000192301220F49F86800F020FA0346002B90
:103BA00001D0012312E0BB690133BB61BA697B68B4
:103BB0009A42FFF432AFFB68202283F83D20FB6875
:103BC000002283F83C20012300E00223184620371E
:103BD000BD4680BD020010000000FFFF80B588B028
:103BE00002AFF8607A603B600B467B81FB68DB6A62
:103BF0007B617B69082B06D07B69012B03D07B6935
:103C000013F5803F08D1FB681B681A68FB681B68C6
:103C100042F480721A600BE0FB681B6B122B07D119
:103C2000FB681B681A68FB681B6842F480721A60A4
:103C30003B6800937B6800224FF00111F86800F0A8
:103C4000CDF90346002B0DD0FB681B681B6803F4FD
:103C50008073B3F5807F03D1FB684FF400721A6460
:103C6000032335E0FB681B69B3F5804F08D17B89DE
:103C7000DBB21A46FB681B6802F0FE021A611BE009
:103C80007B89DB11DBB203F00603DBB263F00F03C9
:103C9000DAB2FB681B681A613B687A680E49F868FB
:103CA00000F016FA0346002B01D0012310E07B89B7
:103CB000DAB2FB681B681A613B687A680749F868E2
:103CC00000F006FA0346002B01D0012300E0002398
:103CD00018461837BD4680BD0800010002000100EB
:103CE00080B588B002AFF860084611461A46034610
:103CF0007B810B463B811346FB80FB681B681A687F
:103D0000FB681B6842F480721A607B6A00933B6A0E
:103D100000224FF00111F86800F060F90346002B13
:103D20000DD0FB681B681B6803F48073B3F5807FBC
:103D300003D1FB684FF400721A6403235FE07B89B0
:103D4000DBB21A46FB681B6802F0FE021A617B6A4E
:103D50003A6A2D49F86800F0BBF90346002B01D000
:103D600001234CE000237B61FB681B685B697B617E
:103D7000FB681B689B697B617B697A6A396AF868B2
:103D800000F046FA0346002B0DD0FB681B6C042B99
:103D900007D1FB681B681A68FB681B6842F4007255
:103DA0001A6001232BE0FB88012B05D13B89DAB295
:103DB000FB681B681A6121E03B891B0A9BB2DAB2DF
:103DC000FB681B681A617A6A396AF86800F020FAA1
:103DD0000346002B0DD0FB681B6C042B07D1FB683E
:103DE0001B681A68FB681B6842F400721A600123A2
:103DF00005E03B89DAB2FB681B681A6100231846AC
:103E00001837BD4680BD00BF0200010080B588B0F4
:103E100002AFF860084611461A4603467B810B46FE
:103E20003B811346FB80FB681B681A68FB681B68B4
:103E300042F480621A60FB681B681A68FB681B68A2
:103E400042F480721A607B6A00933B6A00224FF052
:103E50000111F86800F0C2F80346002B0DD0FB6892
:103E60001B681B6803F48073B3F5807F03D1FB6884
:103E70004FF400721A640323AAE07B89DBB21A466E
:103E8000FB681B6802F0FE021A617B6A3A6A5249BB
:103E9000F86800F01DF90346002B01D0012397E0DC
:103EA00000237B61FB681B685B697B61FB681B68A7
:103EB0009B697B617B697A6A396AF86800F0A8F9C6
:103EC0000346002B0DD0FB681B6C042B07D1FB684D
:103ED0001B681A68FB681B6842F400721A600123B1
:103EE00076E0FB88012B05D13B89DAB2FB681B68C1
:103EF0001A6121E03B891B0A9BB2DAB2FB681B689E
:103F00001A617A6A396AF86800F082F90346002B70
:103F10000DD0FB681B6C042B07D1FB681B681A686B
:103F2000FB681B6842F400721A60012350E03B8971
:103F3000DAB2FB681B681A617A6A396AF86800F0BD
:103F400067F90346002B0DD0FB681B6C042B07D1CF
:103F5000FB681B681A68FB681B6842F400721A60F1
:103F6000012335E0FB681B681A68FB681B6842F494
:103F700080721A607B6A00933B6A00224FF0011145
:103F8000F86800F02BF80346002B0DD0FB681B6887
:103F90001B6803F48073B3F5807F03D1FB684FF493
:103FA00000721A64032313E07B89DBB243F0010340
:103FB000DAB2FB681B681A617B6A3A6A0649F868DC
:103FC00000F086F80346002B01D0012300E0002317
:103FD00018461837BD4680BD0200010080B584B088
:103FE00000AFF860B9603B601346FB7148E03B6886
:103FF000B3F1FF3F44D0FEF7F9F90246BB69D31A8B
:104000003A689A4202D33B68002B39D1BB681B0C3B
:10401000DBB2012B0DD1FB681B685B69DA43BB681F
:1040200013409BB2002B0CBF01230023DBB21A46C6
:104030000CE0FB681B689B69DA43BB6813409BB2CA
:10404000002B0CBF01230023DBB21A46FB799A42F6
:1040500016D1FB6800221A63FB68202283F83D20FA
:10406000FB68002283F83E20FB681B6C43F02002B3
:10407000FB681A64FB68002283F83C20012323E0DC
:10408000BB681B0CDBB2012B0DD1FB681B685B69A5
:10409000DA43BB6813409BB2002B0CBF0123002303
:1040A000DBB21A460CE0FB681B689B69DA43BB680D
:1040B00013409BB2002B0CBF01230023DBB21A4636
:1040C000FB799A4293D0002318461037BD4680BD35
:1040D00080B584B000AFF860B9607A603B6071E091
:1040E000FB681B685B6903F48063B3F5806F23D1C1
:1040F000FB681B681A68FB681B6842F400721A6050
:10410000FB681B686FF480625A61FB6800221A63C7
:10411000FB68202283F83D20FB68002283F83E20C4
:10412000FB681B6C43F00402FB681A64FB68002206
:1041300083F83C20012367E07B68B3F1FF3F41D067
:10414000FEF754F902463B68D31A7A689A4202D3C2
:104150007B68002B36D1BB681B0CDBB2012B0CD16A
:10416000FB681B685B69DA43BB6813409BB2002B9A
:1041700014BF01230023DBB20BE0FB681B689B69C3
:10418000DA43BB6813409BB2002B14BF012300230A
:10419000DBB2002B16D0FB6800221A63FB682022DA
:1041A00083F83D20FB68002283F83E20FB681B6CEF
:1041B00043F02002FB681A64FB68002283F83C206D
:1041C000012321E0BB681B0CDBB2012B0CD1FB6887
:1041D0001B685B69DA43BB6813409BB2002B14BFBA
:1041E00001230023DBB20BE0FB681B689B69DA4309
:1041F000BB6813409BB2002B14BF01230023DBB22A
:10420000002B7FF46DAF002318461037BD4680BDEC
:1042100080B584B000AFF860B9607A6034E0F868C7
:1042200000F0E3F80346002B01D0012334E0BB6823
:10423000B3F1FF3F28D0FEF7D9F802467B68D31AC6
:10424000BA689A4202D3BB68002B1DD1FB681B6879
:104250005B6903F08003802B16D0FB6800221A6391
:10426000FB68202283F83D20FB68002283F83E2073
:10427000FB681B6C43F02002FB681A64FB68002299
:1042800083F83C20012307E0FB681B685B6903F0AF
:104290008003802BC3D1002318461037BD4680BD54
:1042A00080B584B000AFF860B9607A6034E0F86837
:1042B00000F09BF80346002B01D0012334E0BB68DB
:1042C000B3F1FF3F28D0FEF791F802467B68D31A7E
:1042D000BA689A4202D3BB68002B1DD1FB681B68E9
:1042E0005B6903F00403042B16D0FB6800221A63F9
:1042F000FB68202283F83D20FB68002283F83E20E3
:10430000FB681B6C43F02002FB681A64FB68002208
:1043100083F83C20012307E0FB681B685B6903F01E
:104320000403042BC3D1002318461037BD4680BDBB
:1043300080B584B000AFF860B9607A6049E0FB688E
:104340001B685B6903F01003102B19D1FB681B6815
:104350006FF010025A61FB6800221A63FB6820228A
:1043600083F83D20FB68002283F83E20FB681A6C2E
:10437000FB681A64FB68002283F83C20012330E0CC
:10438000FEF734F802467B68D31ABA689A4202D321
:10439000BB68002B1DD1FB681B685B6903F0400301
:1043A000402B16D0FB6800221A63FB68202283F89A
:1043B0003D20FB68002283F83E20FB681B6C43F025
:1043C0002002FB681A64FB68002283F83C2001236A
:1043D00007E0FB681B685B6903F04003402BAED12C
:1043E000002318461037BD4680BD80B483B000AFAF
:1043F00078607B681B685B6903F48063B3F5806F4A
:104400001BD17B681B686FF480625A617B68002255
:104410001A637B68202283F83D207B68002283F8A2
:104420003E207B681B6C43F004027B681A647B6847
:10443000002283F83C20012300E0002318460C37BB
:10444000BD4680BC7047000080B586B000AF786084
:104450007B68002B01D1012372E27B681B6803F0AB
:104460000103002B00F08780924B5B6803F00C0384
:10447000042B0CD08F4B5B6803F00C03082B12D17C
:104480008C4B5B6803F48033B3F5803F0BD1894BD1
:104490001B6803F40033002B6CD07B685B68002B37
:1044A00068D101234CE27B685B68B3F5803F06D19D
:1044B000804B1B687F4A43F4803313602EE07B6897
:1044C0005B68002B0CD17B4B1B687A4A23F480334A
:1044D0001360784B1B68774A23F4802313601DE038
:1044E0007B685B68B3F5A02F0CD1724B1B68714AD7
:1044F00043F4802313606F4B1B686E4A43F4803390
:1045000013600BE06B4B1B686A4A23F48033136023
:10451000684B1B68674A23F4802313607B685B68E1
:10452000002B13D0FDF762FF386108E0FDF75EFF56
:1045300002463B69D31A642B01D9032300E25D4B89
:104540001B6803F40033002BF0D014E0FDF74EFF9E
:10455000386108E0FDF74AFF02463B69D31A642B35
:1045600001D90323ECE1534B1B6803F40033002B08
:10457000F0D100E000BF7B681B6803F00203002B52
:1045800063D04C4B5B6803F00C03002B0BD0494B02
:104590005B6803F00C03082B1CD1464B5B6803F4EB
:1045A0008033002B16D1434B1B6803F00203002B12
:1045B00005D07B681B69012B01D00123C0E13D4B75
:1045C0001B6823F0F8027B685B69DB003949134301
:1045D0000B603AE07B681B69002B20D0364B012230
:1045E0001A60FDF703FF386108E0FDF7FFFE0246A1
:1045F0003B69D31A022B01D90323A1E12D4B1B6880
:1046000003F00203002BF0D02A4B1B6823F0F802C2
:104610007B685B69DB00274913430B6015E0264B81
:1046200000221A60FDF7E2FE386108E0FDF7DEFEC9
:1046300002463B69D31A022B01D9032380E11D4BAB
:104640001B6803F00203002BF0D17B681B6803F0AA
:104650000803002B3AD07B689B69002B19D0174BBD
:1046600001221A60FDF7C2FE386108E0FDF7BEFEC8
:1046700002463B69D31A022B01D9032360E10D4B9B
:104680005B6A03F00203002BF0D0012000F0BAFABD
:104690001CE00A4B00221A60FDF7A8FE38610FE00B
:1046A000FDF7A4FE02463B69D31A022B08D9032367
:1046B00046E100BF00100240000042428004424236
:1046C000924B5B6A03F00203002BE9D17B681B6805
:1046D00003F00403002B00F0A6800023FB758B4B36
:1046E000DB6903F08053002B0DD1884BDB69874ACF
:1046F00043F08053D361854BDB6903F08053BB608B
:10470000BB680123FB75824B1B6803F48073002B8D
:1047100018D17F4B1B687E4A43F480731360FDF70A
:1047200065FE386108E0FDF761FE02463B69D31A79
:10473000642B01D9032303E1754B1B6803F48073D9
:10474000002BF0D07B68DB68012B06D16F4B1B6A16
:104750006E4A43F0010313622DE07B68DB68002B97
:104760000CD16A4B1B6A694A23F001031362674B41
:104770001B6A664A23F0040313621CE07B68DB6853
:10478000052B0CD1614B1B6A604A43F00403136292
:104790005E4B1B6A5D4A43F0010313620BE05B4B07
:1047A0001B6A5A4A23F001031362584B1B6A574A8B
:1047B00023F0040313627B68DB68002B15D0FDF740
:1047C00015FE38610AE0FDF711FE02463B69D31A77
:1047D00041F28832934201D90323B1E04B4B1B6A6B
:1047E00003F00203002BEED014E0FDF7FFFD38616B
:1047F0000AE0FDF7FBFD02463B69D31A41F288321D
:10480000934201D903239BE0404B1B6A03F0020350
:10481000002BEED1FB7D012B05D13C4BDB693B4AE4
:1048200023F08053D3617B68DB69002B00F0878025
:10483000364B5B6803F00C03082B61D07B68DB69A7
:10484000022B46D1334B00221A60FDF7CFFD3861B1
:1048500008E0FDF7CBFD02463B69D31A022B01D9D4
:1048600003236DE0294B1B6803F00073002BF0D18C
:104870007B681B6AB3F5803F08D1244B5B6823F447
:1048800000327B689B68214913434B601F4B5B6878
:1048900023F474127B68196A7B685B6A0B431B49BB
:1048A00013434B601B4B01221A60FDF79FFD3861DB
:1048B00008E0FDF79BFD02463B69D31A022B01D9A4
:1048C00003233DE0114B1B6803F00073002BF0D075
:1048D00035E0104B00221A60FDF788FD386108E0D2
:1048E000FDF784FD02463B69D31A022B01D903234D
:1048F00026E0064B1B6803F00073002BF0D11EE08E
:104900007B68DB69012B07D1012319E0001002400D
:1049100000700040600042420B4B5B68FB60FB682C
:1049200003F480327B681B6A9A4206D1FB6803F469
:1049300070127B685B6A9A4201D0012300E0002379
:1049400018461837BD4680BD0010024080B584B0BF
:1049500000AF786039607B68002B01D10123D0E083
:104960006A4B1B6803F007033A689A4210D9674BF9
:104970001B6823F0070265493B6813430B60634BD8
:104980001B6803F007033A689A4201D00123B8E09C
:104990007B681B6803F00203002B20D07B681B6838
:1049A00003F00403002B05D0594B5B68584A43F4CD
:1049B000E06353607B681B6803F00803002B05D09D
:1049C000534B5B68524A43F460535360504B5B68EF
:1049D00023F0F0027B689B684D4913434B607B6872
:1049E0001B6803F00103002B40D07B685B68012B40
:1049F00007D1474B1B6803F40033002B15D101236B
:104A00007FE07B685B68022B07D1414B1B6803F09A
:104A10000073002B09D1012373E03D4B1B6803F0A9
:104A20000203002B01D101236BE0394B5B6823F0BB
:104A300003027B685B68364913434B60FDF7D6FC85
:104A4000F8600AE0FDF7D2FC0246FB68D31A41F297
:104A50008832934201D9032353E02D4B5B6803F066
:104A60000C027B685B689B009A42EBD1274B1B686A
:104A700003F007033A689A4210D2244B1B6823F0D4
:104A8000070222493B6813430B60204B1B6803F06D
:104A900007033A689A4201D0012332E07B681B6821
:104AA00003F00403002B08D0194B5B6823F4E06289
:104AB0007B68DB68164913434B607B681B6803F017
:104AC0000803002B09D0124B5B6823F460527B680B
:104AD0001B69DB000E4913434B6000F021F80246CE
:104AE0000B4B5B681B0903F00F030A49CB5C22FAEE
:104AF00003F3094A1360094B1B681846FDF734FCA1
:104B0000002318461037BD4680BD00BF002002407C
:104B1000001002405069000818000020200000200A
:104B200080B487B000AF0023FB600023BB6000238C
:104B30007B6100237B6000233B611E4B5B68FB6055
:104B4000FB6803F00C03042B02D0082B03D027E0F2
:104B5000194B3B6127E0FB689B0C03F00F03174ADE
:104B6000D35C7B60FB6803F48033002B10D0114BC7
:104B70005B685B0C03F00103114AD35CBB607B688C
:104B80000D4A03FB02F2BB68B2FBF3F37B6104E066
:104B90007B680C4A02FB03F37B617B693B6102E0AB
:104BA000054B3B6100BF3B6918461C37BD4680BCC6
:104BB000704700BF0010024000127A0068690008C8
:104BC0007869000800093D0080B400AF024B1B6803
:104BD0001846BD4680BC70471800002080B500AF65
:104BE000FFF7F2FF0246054B5B681B0A03F0070361
:104BF0000349CB5C22FA03F3184680BD0010024043
:104C00006069000880B485B000AF78600A4B1B680B
:104C10000A4AA2FB03235B0A7A6802FB03F3FB60E8
:104C200000BFFB685A1EFA60002BF9D100BF00BF1D
:104C30001437BD4680BC704718000020D34D621069
:104C400080B586B000AF786000233B610023FB6035
:104C50007B681B6803F00103002B7DD00023FB75EC
:104C60004F4BDB6903F08053002B0DD14C4BDB69BC
:104C70004B4A43F08053D361494BDB6903F08053C7
:104C8000BB60BB680123FB75464B1B6803F4807354
:104C9000002B18D1434B1B68424A43F480731360C6
:104CA000FDF7A4FB386108E0FDF7A0FB02463B6975
:104CB000D31A642B01D903236DE03A4B1B6803F42C
:104CC0008073002BF0D0364B1B6A03F44073FB60FB
:104CD000FB68002B2ED07B685B6803F44073FA6896
:104CE0009A4227D02E4B1B6A23F44073FB602E4B55
:104CF00001221A602C4B00221A60294AFB681362B9
:104D0000FB6803F00103002B14D0FDF76FFB386143
:104D10000AE0FDF76BFB02463B69D31A41F2883289
:104D2000934201D9032336E01D4B1B6A03F00203B3
:104D3000002BEED01A4B1B6A23F440727B685B6831
:104D4000174913430B62FB7D012B05D1144BDB6923
:104D5000134A23F08053D3617B681B6803F002037E
:104D6000002B08D00E4B5B6823F440427B689B68A5
:104D70000B4913434B607B681B6803F01003002B47
:104D800008D0074B5B6823F480027B68DB6804492A
:104D900013434B60002318461837BD4680BD00BF43
:104DA00000100240007000404004424280B582B0D2
:104DB00000AF78607B68002B01D1012341E07B6864
:104DC00093F83D30DBB2002B06D17B68002283F8DC
:104DD0003C207868FCF73CFE7B68022283F83D208B
:104DE0007B681A687B6804331946104600F0B2FCF1
:104DF0007B68012283F846207B68012283F83E20ED
:104E00007B68012283F83F207B68012283F84020E1
:104E10007B68012283F841207B68012283F84220CD
:104E20007B68012283F843207B68012283F84420B9
:104E30007B68012283F845207B68012283F83D20AE
:104E4000002318460837BD4680BD000080B485B0F9
:104E500000AF78607B6893F83D30DBB2012B01D066
:104E600001233AE07B68022283F83D207B681B68BF
:104E7000DA687B681B6842F00102DA607B681B68B5
:104E8000184A93420ED07B681B68B3F1804F09D05B
:104E90007B681B68144A934204D07B681B68134AE2
:104EA000934211D17B681B689B6803F00703FB608A
:104EB000FB68062B10D07B681B681A687B681B6830
:104EC00042F001021A6007E07B681B681A687B6881
:104ED0001B6842F001021A60002318461437BD46D1
:104EE00080BC7047002C01400004004000080040D6
:104EF00080B582B000AF78607B68002B01D10123C0
:104F000041E07B6893F83D30DBB2002B06D17B6833
:104F1000002283F83C20786800F039F87B68022290
:104F200083F83D207B681A687B6804331946104675
:104F300000F010FC7B68012283F846207B68012288
:104F400083F83E207B68012283F83F207B680122A2
:104F500083F840207B68012283F841207B6801228E
:104F600083F842207B68012283F843207B6801227A
:104F700083F844207B68012283F845207B68012266
:104F800083F83D20002318460837BD4680BD80B415
:104F900083B000AF786000BF0C37BD4680BC70475F
:104FA00080B584B000AF786039600023FB733B6844
:104FB000002B09D17B6893F83E30DBB2012B14BF84
:104FC00001230023DBB222E03B68042B09D17B687C
:104FD00093F83F30DBB2012B14BF01230023DBB277
:104FE00015E03B68082B09D17B6893F84030DBB2B1
:104FF000012B14BF01230023DBB208E07B6893F888
:105000004130DBB2012B14BF01230023DBB2002BA4
:1050100001D00123A9E03B68002B04D17B68022268
:1050200083F83E2013E03B68042B04D17B68022206
:1050300083F83F200BE03B68082B04D17B680222F9
:1050400083F8402003E07B68022283F841203B681C
:105050000C2B41D801A252F823F000BF9150000858
:10506000D9500008D9500008D9500008A3500008B2
:10507000D9500008D9500008D9500008B550000890
:10508000D9500008D9500008D9500008C75000086E
:105090007B681B68DA687B681B6842F00202DA6092
:1050A0001DE07B681B68DA687B681B6842F00402BD
:1050B000DA6014E07B681B68DA687B681B6842F082
:1050C0000802DA600BE07B681B68DA687B681B68A3
:1050D00042F01002DA6002E00123FB7300BFFB7BA9
:1050E000002B41D17B681B6801223968184600F00B
:1050F000BDFD7B681B681F4A934207D17B681B6814
:105100005A6C7B681B6842F400425A647B681B68D7
:10511000184A93420ED07B681B68B3F1804F09D0C8
:105120007B681B68144A934204D07B681B68134A4F
:10513000934211D17B681B689B6803F00703BB6037
:10514000BB68062B10D07B681B681A687B681B68DD
:1051500042F001021A6007E07B681B681A687B68EE
:105160001B6842F001021A60FB7B18461037BD46EF
:1051700080BD00BF002C014000040040000800403A
:1051800080B584B000AF786039600023FB733B6862
:105190000C2B41D801A252F823F000BFD1510008D6
:1051A000195200081952000819520008E35100086A
:1051B000195200081952000819520008F551000848
:1051C0001952000819520008195200080752000825
:1051D0007B681B68DA687B681B6822F00202DA6071
:1051E0001DE07B681B68DA687B681B6822F004029C
:1051F000DA6014E07B681B68DA687B681B6822F061
:105200000802DA600BE07B681B68DA687B681B6861
:1052100022F01002DA6002E00123FB7300BFFB7B87
:10522000002B57D17B681B6800223968184600F0B4
:105230001DFD7B681B682A4A934217D17B681B6857
:105240001A6A41F211131340002B0FD17B681B68BF
:105250001A6A40F244431340002B07D17B681B6855
:105260005A6C7B681B6822F400425A647B681B6896
:105270001A6A41F211131340002B0FD17B681B688F
:105280001A6A40F244431340002B07D17B681B6825
:105290001A687B681B6822F001021A603B68002BC9
:1052A00004D17B68012283F83E2013E03B68042B85
:1052B00004D17B68012283F83F200BE03B68082B78
:1052C00004D17B68012283F8402003E07B6801223F
:1052D00083F84120FB7B18461037BD4680BD00BFD8
:1052E000002C014080B584B000AF78607B681B68FB
:1052F000DB68FB607B681B681B69BB60BB6803F0F5
:105300000203002B20D0FB6803F00203002B1BD00C
:105310007B681B686FF002021A617B6801221A77B2
:105320007B681B689B6903F00303002B03D078683C
:1053300000F0F4F905E0786800F0E7F9786800F02B
:10534000F6F97B6800221A77BB6803F00403002B90
:1053500020D0FB6803F00403002B1BD07B681B6884
:105360006FF004021A617B6802221A777B681B685F
:105370009B6903F44073002B03D0786800F0CEF9EA
:1053800005E0786800F0C1F9786800F0D0F97B6832
:1053900000221A77BB6803F00803002B20D0FB68BB
:1053A00003F00803002B1BD07B681B686FF008021A
:1053B0001A617B6804221A777B681B68DB6903F03B
:1053C0000303002B03D0786800F0A8F905E07868A3
:1053D00000F09BF9786800F0AAF97B6800221A7740
:1053E000BB6803F01003002B20D0FB6803F0100310
:1053F000002B1BD07B681B686FF010021A617B6862
:1054000008221A777B681B68DB6903F44073002B62
:1054100003D0786800F082F905E0786800F075F94B
:10542000786800F084F97B6800221A77BB6803F083
:105430000103002B0CD0FB6803F00103002B07D005
:105440007B681B686FF001021A617868FBF71CFD2E
:10545000BB6803F08003002B0CD0FB6803F08003D3
:10546000002B07D07B681B686FF080021A61786898
:1054700000F087FCBB6803F04003002B0CD0FB68F6
:1054800003F04003002B07D07B681B686FF04002DD
:105490001A61786800F054F9BB6803F02003002B10
:1054A0000CD0FB6803F02003002B07D07B681B683F
:1054B0006FF020021A61786800F05AFC00BF1037C4
:1054C000BD4680BD80B586B000AFF860B9607A6037
:1054D0000023FB75FB6893F83C30012B01D10223BC
:1054E00048E0FB68012283F83C207B680C2B39D80C
:1054F00001A252F823F000BF2D55000865550008A1
:1055000065550008655500083B55000865550008BD
:10551000655500086555000849550008655500089F
:10552000655500086555000857550008FB681B685D
:10553000B968184600F07CF917E0FB681B68B96889
:10554000184600F0DBF910E0FB681B68B9681846E4
:1055500000F03EFA09E0FB681B68B968184600F0E5
:10556000A1FA02E00123FB7500BFFB68002283F86B
:105570003C20FB7D18461837BD4680BD80B584B001
:1055800000AF786039600023FB737B6893F83C3090
:10559000012B01D10223B4E07B68012283F83C2077
:1055A0007B68022283F83D207B681B689B68BB6098
:1055B000BB6823F07703BB60BB6823F47F43BB6009
:1055C0007B681B68BA689A603B681B68B3F5005F2C
:1055D0003ED0B3F5005F00F28780B3F5805F00F046
:1055E0008680B3F5805F7FD8702B1AD0702B7BD864
:1055F000602B50D0602B77D8502B3CD0502B73D8D9
:10560000402B58D0402B6FD8302B64D0302B6BD828
:10561000202B60D0202B67D8002B5CD0102B5AD0C9
:1056200062E07B6818683B6899683B685A683B6829
:10563000DB6800F0FCFA7B681B689B68BB60BB689A
:1056400043F07703BB607B681B68BA689A604FE0E1
:105650007B6818683B6899683B685A683B68DB68F8
:1056600000F0E5FA7B681B689A687B681B6842F467
:1056700080429A603CE07B6818683B6859683B68E8
:10568000DB681A4600F05CFA7B681B6850211846FC
:1056900000F0B3FA2CE07B6818683B6859683B68F7
:1056A000DB681A4600F07AFA7B681B6860211846AE
:1056B00000F0A3FA1CE07B6818683B6859683B68F7
:1056C000DB681A4600F03CFA7B681B6840211846EC
:1056D00000F093FA0CE07B681A683B681B68194677
:1056E000104600F08AFA03E00123FB7300E000BFDC
:1056F0007B68012283F83D207B68002283F83C20F0
:10570000FB7B18461037BD4680BD80B483B000AF28
:10571000786000BF0C37BD4680BC704780B483B052
:1057200000AF786000BF0C37BD4680BC704780B4C6
:1057300083B000AF786000BF0C37BD4680BC7047B7
:1057400080B483B000AF786000BF0C37BD4680BC2A
:105750007047000080B485B000AF786039607B6826
:105760001B68FB607B682F4A93420BD07B68B3F1C8
:10577000804F07D07B682C4A934203D07B682B4A2A
:10578000934208D1FB6823F07003FB603B685B68C1
:10579000FA681343FB607B68224A93420BD07B6814
:1057A000B3F1804F07D07B681F4A934203D07B68D8
:1057B0001E4A934208D1FB6823F44073FB603B68A8
:1057C000DB68FA681343FB60FB6823F080023B68E8
:1057D0005B691343FB607B68FA681A603B689A68F0
:1057E0007B68DA623B681A687B689A627B680D4A5C
:1057F000934203D13B681A697B681A637B68012274
:105800005A617B681B6903F00103002B05D07B689C
:105810001B6923F001027B681A6100BF1437BD4683
:1058200080BC7047002C014000040040000800408C
:1058300080B487B000AF786039607B681B6A7B6199
:105840007B681B6A23F001027B681A627B685B68D5
:105850003B617B689B69FB60FB6823F07003FB6026
:10586000FB6823F00303FB603B681B68FA68134383
:10587000FB607B6923F002037B613B689B687A696C
:1058800013437B617B681C4A93420CD17B6923F0F4
:1058900008037B613B68DB687A6913437B617B6942
:1058A00023F004037B617B68134A934211D13B6967
:1058B00023F480733B613B6923F400733B613B68D5
:1058C0005B693A6913433B613B689B693A691343DF
:1058D0003B617B683A695A607B68FA689A613B6809
:1058E0005A687B685A637B687A691A6200BF1C3702
:1058F000BD4680BC704700BF002C014080B487B01B
:1059000000AF786039607B681B6A7B617B681B6ACB
:1059100023F010027B681A627B685B683B617B68DE
:105920009B69FB60FB6823F4E043FB60FB6823F4A6
:105930004073FB603B681B681B02FA681343FB6003
:105940007B6923F020037B613B689B681B017A69BC
:1059500013437B617B681D4A93420DD17B6923F021
:1059600080037B613B68DB681B017A6913437B61C1
:105970007B6923F040037B617B68144A934213D117
:105980003B6923F480633B613B6923F400633B6123
:105990003B685B699B003A6913433B613B689B69C9
:1059A0009B003A6913433B617B683A695A607B68A4
:1059B000FA689A613B685A687B689A637B687A697F
:1059C0001A6200BF1C37BD4680BC7047002C0140E6
:1059D00080B487B000AF786039607B681B6A7B61F8
:1059E0007B681B6A23F480727B681A627B685B6841
:1059F0003B617B68DB69FB60FB6823F07003FB6045
:105A0000FB6823F00303FB603B681B68FA681343E1
:105A1000FB607B6923F400737B613B689B681B021E
:105A20007A6913437B617B681D4A93420DD17B6980
:105A300023F400637B613B68DB681B027A691343D4
:105A40007B617B6923F480637B617B68144A9342AA
:105A500013D13B6923F480533B613B6923F400532A
:105A60003B613B685B691B013A6913433B613B68DF
:105A70009B691B013A6913433B617B683A695A6031
:105A80007B68FA68DA613B685A687B68DA637B682E
:105A90007A691A6200BF1C37BD4680BC704700BFE0
:105AA000002C014080B487B000AF786039607B681B
:105AB0001B6A3B617B681B6A23F480527B681A6215
:105AC0007B685B687B617B68DB69FB60FB6823F458
:105AD000E043FB60FB6823F44073FB603B681B689A
